:1000000014C037C036C035C034C033C032C031C070
:1000100030C004C62EC0A2C42CC06AC42AC029C0E5
:1000200028C027C026C07F08E30911241FBECFE5E2
:10003000D4E0DEBFCDBF11E0A0E6B0E0E4E5F8E13A
:1000400002C005900D92AC30B107D9F711E0ACE0D9
:10005000B1E001C01D92A53CB107E1F710E0CAE292
:10006000D0E003C02297FE01F1DBC632D107D1F701
:100070003DC6C6CF0F931F938C01FC016083128293
:1000800014821382168215821782108611861286B8
:100090001386148615861686158A148A138A128A80
:1000A000118A108A178640E855E260E070E08CEA19
:1000B00091E03BD8F801808160E070E0992741D65B
:1000C0001F910F9108950F931F938C01FC01608382
:1000D000128214821382168215821782108611866C
:1000E00012861386148615861686158A148A138A34
:1000F000128A118A108A178640E855E260E070E0A3
:100100008CEA91E012D8F801808160E070E09927D4
:1001100018D61F910F9108952F923F924F925F92A0
:100120006F927F928F929F92AF92BF92CF92DF9207
:10013000EF92FF920F931F93CF93DF93CDB7DEB76C
:10014000E2970FB6F894DEBF0FBECDBF9AAB89AB76
:10015000FC0185819681CB9709F00EC13796FA8311
:10016000E9838281829586958770F381FF70FF0F06
:10017000FF0FFF0FF82BFB839924AA24BB24CC2468
:10018000DD24EE24FF2404E02F2F392D4A2D5B2D92
:100190006C2D7D2D8E2D9F2D5CD92C833D834E8320
:1001A0005F83688779878A879B8701E0D3D9222E6E
:1001B00002E0D0D92219EB81E21B2E2FE9A9FAA97E
:1001C000208BE981FA818381829586958770F481FD
:1001D000F770FF0FFF0FFF0FF82BFC879924AA245D
:1001E000BB24CC24DD24EE24FF2404E02F2F392D62
:1001F0004A2D5B2D6C2D7D2D8E2D9F2D2AD92D877F
:100200003E874F87588B698B7A8B8B8B9C8B01E059
:10021000A1D9222E02E09ED92219EC85E21B2E2FB5
:10022000E9A9FAA9218BE981FA81848182958F70ED
:10023000F581F370F295F07FF82BFD8B9924AA24B9
:10024000BB24CC24DD24EE24FF2404E02F2F392D01
:100250004A2D5B2D6C2D7D2D8E2D9F2DFAD82E8B4A
:100260003F8B488F598F6A8F7B8F8C8F9D8F01E0DA
:1002700071D9222E02E06ED92219ED89E21B2E2FB0
:10028000E9A9FAA9228BE981FA818581829586956F
:100290008770F681F370FF0FFF0FFF0FF82BFE8FB3
:1002A0009924AA24BB24CC24DD24EE24FF2404E0DA
:1002B0002F2F392D4A2D5B2D6C2D7D2D8E2D9F2DB1
:1002C000C8D82F8F38A349A35AA36BA37CA38DA3AF
:1002D0009EA301E03FD9222E02E03CD92219EE8DE7
:1002E000E21B2E2FE9A9FAA9238BE981FA819681D5
:1002F0009695969587818295880F880F807C892BAB
:10030000282F332738A72FA39924AA24BB24CC2431
:10031000DD24EE24FF2404E0282F392D4A2D5B2D07
:100320006C2D7D2D8E2D9F2D94D829A73AA74BA7F4
:100330005CA76DA77EA78FA798AB01E00BD9222EF3
:10034000332E02E007D9A22EB32E2219E1E0A21625
:1003500008F0E0E03B2D3319B32FBE1B3B2FEFA17C
:10036000F8A5E21BF30BF8A7EFA3E053F84F9F01AA
:10037000E9A9FAA9358B248BE9A9FAA9178616826F
:1003800015821782108611861286138614861586AA
:100390001686E2960FB6F894DEBF0FBECDBFDF9192
:1003A000CF911F910F91FF90EF90DF90CF90BF9072
:1003B000AF909F908F907F906F905F904F903F9005
:1003C0002F9008952F923F924F925F926F927F925B
:1003D0008F929F92AF92BF92CF92DF92EF92FF9255
:1003E0000F931F93CF93DF93CDB7DEB724970FB64C
:1003F000F894DEBF0FBECDBF9C838B839924AA24C3
:10040000BB24CC24DD24EE24FF24FC010580F681EE
:10041000E02DFA83E9830981262F392D4A2D5B2DA2
:100420006C2D7D2D8E2D9F2D95D8222E332E442E72
:10043000552E662E772E882E992EEB81FC81A78073
:10044000B084C184D284E384F484058516852A2D82
:1004500022293B2D33294C2D44295D2D55296E2D04
:1004600066297F2D7729802F8829912F9929278325
:10047000308741875287638774878587968789810C
:100480009A81019696838583CC9714F0CF0144DE40
:1004900024960FB6F894DEBF0FBECDBFDF91CF918B
:1004A0001F910F91FF90EF90DF90CF90BF90AF9092
:1004B0009F908F907F906F905F904F903F902F9084
:1004C0000895CF92DF92EF92FF920F931F936C01EA
:1004D0000CEA11E060E670E0C8014FD6F6014189F0
:1004E0005527662777272AE030E0C80105D797E629
:1004F000E92E90E0F92EB701C8013FD6F6014089F8
:100500005527662777272AE030E0C801F5D6B701DE
:10051000C80133D6F60147855527662777272AE095
:1005200030E0C801E9D669E670E0C80126D6F601D8
:1005300042895527662777272AE030E0C801DCD6B4
:1005400081E7E82E80E0F82EB701C80116D6F60143
:1005500043895527662777272AE030E0C801CCD6A3
:10056000B701C8010AD6F60144895589662777275D
:100570002AE030E0C80116D71F910F91FF90EF904D
:10058000DF90CF900895FC0187858F5F87878C333C
:1005900069F4178680898F5F808B8C3339F4108AD9
:1005A00081898F5F818B883109F4118A0895DF92E8
:1005B000EF92FF920F931F93CF93DF93EC0188810B
:1005C000992791D4D82E8A81D81621F121E0D2160C
:1005D00099F4CE01D8DF47D37B018C018B819C81BC
:1005E0009701281B390BC901815B944014F0CE019F
:1005F00093DDFC82EB820DC036D32B813C81621BE4
:10060000730B6C38710514F460E001C061E0CE0139
:10061000D9DEDA828D2D9927DF91CF911F910F912D
:10062000FF90EF90DF900895FC0171836083538306
:10063000428317821682158214820895CF93DF9326
:10064000EC018C819D81892B11F4E0E017C08E8133
:100650009F81E881F981E80FF91FE08101969F836E
:100660008E836A817B818617970718F065D89F83F0
:100670008E838C819D8101979D838C838E2F9927FA
:10068000DF91CF910895FC019B01848195816817CA
:100690007907A8F486819781860F971F97838683B1
:1006A000628173818617970718F046D897838683EF
:1006B00084819581821B930B958384830895158291
:1006C00014820895FC019B01868197816281738168
:1006D000820F931F31D80190F081E02DE80FF91FB0
:1006E000808199270895CF93DF93EC01462F2C81C9
:1006F0003D816A817B812617370718F080E090E002
:1007000011C08E819F81820F931F16D8E881F981D5
:10071000E80FF91F40838C819D8101969D838C8316
:100720008FEF90E0DF91CF910895FC0140E050E021
:1007300024813581828193812817390710F441E0A3
:1007400050E0CA010895FC01158214820895EF92C9
:10075000FF920F931F937A018B0151D0C801B7010B
:1007600026D01F910F91FF90EF9008958ED008959D
:1007700062D0FC01848199270895FF920F931F9303
:10078000CF93DF93F42EC0E0D0E08B0105C0F801D9
:1007900081918F0156D021968F2D9927C817D9079F
:1007A000B4F3DF91CF911F910F91FF900895F3E083
:1007B000660F771F881F991FFA95D1F79B01AC012F
:1007C000220F331F441F551F60507C4D8B409F4F9D
:1007D000C7D72150304029B9232F332720BD089592
:1007E00040E450E06EE471E08EEA91E01DDF40E409
:1007F00050E06EE071E087EB91E016DF0895F0DFE6
:1008000010920D0110920C0188ED8AB960E875E232
:1008100080E090E0CCDF8FEF8093AD011092B601C5
:100820001092C0011092BF017894089590930D0129
:1008300080930C0108958EEA91E0089587EB91E092
:100840000895982F8091AD018823E1F39CB910920F
:10085000AD010895CF93DF93EC018091B0019091A9
:10086000B101892B69F08091B2019091B301892B7C
:1008700039F08EEA91E0E2DE88838FEF90E002C0EB
:1008800080E090E0DF91CF910895CF93DF93CDB7D3
:10089000DEB721970FB6F894DEBF0FBECDBFCE01F5
:1008A0000196D8DF882319F48FEF9FEF02C089816A
:1008B000992721960FB6F894DEBF0FBECDBFDF910A
:1008C000CF9108951092B3011092B20108958091D2
:1008D000B2019091B301892B19F48FEF90E0089544
:1008E00080E090E00895682F87EB91E0FCDE0895AA
:1008F0001F920F920FB60F9211242F933F934F9395
:100900005F936F937F938F939F93AF93BF93EF9377
:10091000FF938091B601882369F08091BB0190918B
:10092000BC01892B29F087EB91E088DE8CB905C0EA
:100930001092B6018FEF8093AD01FF91EF91BF91BF
:10094000AF919F918F917F916F915F914F913F9167
:100950002F910F900FBE0F901F9018951F920F921E
:100960000FB60F9211242F933F934F935F936F9382
:100970007F938F939F93AF93BF93EF93FF936CB14C
:1009800080910C0190910D01892B39F0E0910C01BF
:10099000F0910D01862F09950EC08EEA91E0A3DE3D
:1009A000882349F48091BF019091C00101969093F2
:1009B000C0018093BF01FF91EF91BF91AF919F91D3
:1009C0008F917F916F915F914F913F912F910F90F8
:1009D0000FBE0F901F9018958FEF8093B60187EB95
:1009E00091E02CDE982F8091AD018823E1F39CB932
:1009F0001092AD010895880F991F880F991FE091FB
:100A0000AB00F091AC00E80FF91F8081918108954F
:100A1000880F991F880F991FE091AB00F091AC00EF
:100A2000E80FF91F828193810895880F991FE09143
:100A30008D00F0918E00E80FF91F8081918108955B
:100A4000880F991F880F991FE0917300F09174002F
:100A5000E80FF91F828193810895EF92FF920F931F
:100A60001F937B018C01CBDEC801B701A0DE1F9173
:100A70000F91FF90EF900895E4DE0895DCDEFC0115
:100A800084819581089501DF08950895F5DF089523
:100A90008AE0FCDF0895CF93DF93EC0102C021963A
:100AA000F5DF88818823D9F7DF91CF9108952F92C0
:100AB0003F924F925F926F927F928F929F92AF92EE
:100AC000BF92CF92DF92EF92FF920F931F93CF933B
:100AD000DF93CDB7DEB7A0970FB6F894DEBF0FBE99
:100AE000CDBF6B017C0119012A01611571058105DA
:100AF000910519F480E3CADF48C0662477244301D6
:100B00005E010894A11CB11C8501060D171DC701CB
:100B1000B601A201910124D6F80160830894611CFA
:100B2000711C811C911CC701B601A201910118D64C
:100B300069017A01211531054105510529F7730134
:100B40000894E108F108EA0CFB1CAA24BB24650107
:100B500010C0F70180818A3010F4805D01C0895C8B
:100B600095DF0894A108B108C108D1080894E108EC
:100B7000F10888279927DC0186199709A809B9097E
:100B8000A816B906CA06DB0621F7A0960FB6F89498
:100B9000DEBF0FBECDBFDF91CF911F910F91FF90B0
:100BA000EF90DF90CF90BF90AF909F908F907F900D
:100BB0006F905F904F903F902F900895EF92FF922B
:100BC0000F931F937B018C0197FF0AC08DE25EDFBC
:100BD00010950095F094E094E11CF11C011D111D8D
:100BE0002AE030E040E050E0C801B70160DF1F912B
:100BF0000F91FF90EF90089520E130E040E050E049
:100C000056DF089528E030E040E050E050DF0895DE
:100C100022E030E040E050E04ADF08951F920F925A
:100C20000FB60F9211248F939F93AF93BF93809130
:100C3000C1019091C201A091C301B091C40101967C
:100C4000A11DB11D8093C1019093C201A093C30166
:100C5000B093C401BF91AF919F918F910F900FBE40
:100C60000F901F9018956091C1017091C201809101
:100C7000C3019091C401E4E0660F771F881F991F9C
:100C8000EA95D1F72DE730E040E050E069D5CA01A0
:100C9000B9010895AF92BF92CF92DF92EF92FF9287
:100CA0000F931F935B016C01DEDF7B018C01DBDFA7
:100CB0006E197F09800B910B6A157B058C059D05CC
:100CC000B0F31F910F91FF90EF90DF90CF90BF9006
:100CD000AF900895019749F0880F991F880F991FC9
:100CE0000297F8940197F1F778940895CFE5D4E04E
:100CF000DEBFCDBF78941092C1011092C201109254
:100D0000C3011092C40183B7826083BF89B7816039
:100D100089BF8EB582608EBD8EB581608EBD8FB568
:100D200081608FBD85B5846085BD85B5806485BDD6
:100D30003F983E9A329A319A309A379A90D197D109
:100D4000FECFCF93DF93880F991F880F991FA09133
:100D5000AB00B091AC00A80FB91FED91FC911197B9
:100D6000309731F1EE0FFF1FED014A815B81672B58
:100D700081F4E750FF4F0190F081E02D20A181E048
:100D800090E002C0880F991F4A95E2F780952823CA
:100D90000EC0E750FF4F0190F081E02D20A181E0CF
:100DA00090E002C0880F991F4A95E2F7282B20A3F4
:100DB000DF91CF910895CF93DF939C01880F991F06
:100DC000880F991FA091AB00B091AC00A80FB91F7C
:100DD0004D915C9111974115510509F444C0220FC2
:100DE000331FE0918D00F0918E00E20FF31F019010
:100DF000F081E02DE230F10519F48FB58F7705C051
:100E0000E330F10521F48FB58F7D8FBD05C0349798
:100E100019F485B58F7D85BDFA01EE0FFF1FED0139
:100E20004A815B81672B81F4E151FF4F0190F08192
:100E3000E02D20A181E090E002C0880F991F4A9523
:100E4000E2F7809528230EC0E151FF4F0190F08119
:100E5000E02D20A181E090E002C0880F991F4A9503
:100E6000E2F7282B20A3DF91CF9108950F931F93D2
:100E7000CF93DF93EC018B0161E070E062DFCE0184
:100E8000880F991FE0918D00F0918E00E80FF91FF7
:100E90000190F081E02DE230F10531F48FB58068EA
:100EA0008FBD1BBD0ABD1AC0E330F10531F48FB50B
:100EB00080628FBD19BD08BD11C0349729F485B576
:100EC000806285BD03BD0AC0003811051CF460E0D6
:100ED00070E002C061E070E0CE016DDFDF91CF9184
:100EE0001F910F910895CF93DF939C01880F991F55
:100EF000880F991FC091AB00D091AC00C80FD91FCB
:100F0000A881B981109719F480E090E02DC0220FDC
:100F1000331FE0918D00F0918E00E20FF31F0190DE
:100F2000F081E02DE230F10519F48FB58F7705C01F
:100F3000E330F10521F48FB58F7D8FBD05C0349767
:100F400019F485B58F7D85BDAA0FBB1FAB51BF4F6F
:100F5000ED91FC9180A199270A8002C09595879513
:100F60000A94E2F781709070DF91CF910895CF934A
:100F7000DF93880F991F880F991FA091AB00B09144
:100F8000AC00A80FB91FED91FC911197EE0FFF1F58
:100F9000EB51FF4F0190F081E02DED018A819B81A3
:100FA000A1E0B0E0082E02C0AA0FBB1F0A94E2F72E
:100FB00020E030E0672B11F021E030E0B90102C001
:100FC000660F771F8A95E2F7EF01A09680A1992717
:100FD0008A239B2386179707C9F720E030E040E07B
:100FE00050E004C02F5F3F4F4F4F5F4F88819927DC
:100FF0008A239B2386179707A9F3CA01B90124E125
:1010000030E040E050E079D327E130E040E050E0CC
:10101000A7D3CA01B901DF91CF91089527B1207FED
:10102000880F991F880F991FE0917300F091740049
:10103000E80FF91F82818F70282B27B961E070E0DB
:1010400080E090E027DE369A3699FECF24B185B154
:101050009927982F88273327822B932B089561E0B7
:1010600070E080910301909104016BDE08958EE899
:1010700091E09DDA2091030130910401892B19F050
:1010800061E070E002C060E070E0C90194DE809130
:101090009F0199279093A5018093A40180919E01BF
:1010A00099279093A7018093A60180919D0199278C
:1010B0009093AB018093AA012091A8013091A901DE
:1010C0008217930719F08EE891E0FBD964E170E094
:1010D00080E090E0DFDD8091AA019091AB019093D8
:1010E000A9018093A80108956F5F7F4F39F401979C
:1010F00029F4609105018EE891E0E5D708956FEF3E
:101100007FEF81E090E0F0DF0895FC01662311F4A9
:101110001082089581E080830895FC01662311F414
:101120001082089581E080830895FC0180810FDBA7
:101130000895FC0180811CDB99270895FC018081C2
:1011400015DB0895CF93DF93CDB7DEB721970FB6A8
:10115000F894DEBF0FBECDBFFC01698341E0BE0144
:101160006F5F7F4F808109DB21960FB6F894DEBF59
:101170000FBECDBFDF91CF910895FB0101900020FC
:10118000E9F73197E61BF70B4E2FFC018081F5DA6A
:101190000895CF93DF93CDB7DEB721970FB6F894BC
:1011A000DEBF0FBECDBFFC01698341E0BE016F5FB2
:1011B0007F4F8081E2DA21960FB6F894DEBF0FBE32
:1011C000CDBFDF91CF9108956F927F928F929F92C2
:1011D000AF92BF92CF92DF92EF92FF920F931F9345
:1011E000CF93DF93CDB7DEB7A0970FB6F894DEBFED
:1011F0000FBECDBF3C017A018B0141155105610540
:10120000710519F460E39EDF37C04E010894811C1C
:10121000911CA22EBB24CC24DD24C801B701A60159
:1012200095019ED2F40161934F01C801B701A60157
:10123000950196D279018A012115310541055105A3
:1012400061F7CE0101968401081B190B0150104073
:101250007C01E00EF11E0EC0F70160816A3010F4CF
:10126000605D01C0695CC3016DDF015010400894EE
:10127000E108F10817FFF0CFA0960FB6F894DEBF93
:101280000FBECDBFDF91CF911F910F91FF90EF90D7
:10129000DF90CF90BF90AF909F908F907F906F9096
:1012A0000895EF92FF920F931F93CF93DF93EC017A
:1012B0007A018B0177FF0AC06DE244DF109500953B
:1012C000F094E094E11CF11C011D111D2AE0B8010D
:1012D000A701CE0179DFDF91CF911F910F91FF9090
:1012E000EF900895AB01662757FD6095762FD9DF03
:1012F00008952AE069DF08952115310519F4642F56
:1013000021DF08952A30310511F4CBDF08955CDF29
:1013100008950F931F938C016DE014DF6AE0C801FC
:1013200011DF1F910F9108950F931F938C010ADF16
:10133000C801EFDF1F910F9108950F931F938C0148
:10134000FB0101900020E9F73197E61BF70B4E2FC8
:10135000FC01808112DAC801DCDF1F910F91089532
:101360000F931F938C0115DFC801D3DF1F910F91DD
:1013700008950F931F938C0194DFC801CADF1F915A
:101380000F910895AB01662757FD6095762FF1DF29
:1013900008950F931F938C01ACDFC801BADF1F9132
:1013A0000F9108950F931F938C01A6DFC801B1DF41
:1013B0001F910F9108956F5F7F4F21F4019711F4F2
:1013C0001092AC0108956FEF7FEF81E090E0F3DFC2
:1013D0000895009709F086D10895EF92FF920F9338
:1013E0001F937B018C01611571058105910529F41D
:1013F00060E070E080E090E00AC070D1AA2797FD1D
:10140000A095BA2FBC01CD01A8019701CBD11F91A6
:101410000F91FF90EF900895EF92FF920F931F931B
:101420007B018C0162177307840795075CF4261B08
:10143000370B480B590BCA01B901CFDFE60EF71E77
:10144000081F191FC801B7011F910F91FF90EF905E
:101450000895A0E1B0E0EEE2FAE0BFC1222E332E03
:10146000442E552E662E772E882E992E002309F4B1
:1014700066C088E0FE01319611928A95E9F72983CA
:101480003A834B835C836D837E838F829887E0E20F
:10149000E01B1E16CCF52D813E814F815885602FB3
:1014A000772767FD7095DA01C901062E04C0B6954D
:1014B000A795979587950A94D2F78D879E87AF87D2
:1014C000B88B04C0220F331F441F551FEA95D2F773
:1014D00089819A81AB81BC8104C0B695A795979507
:1014E00087956A95D2F7282B392B4A2B5B2B2987B6
:1014F0003A874B875C8729843A844B845C846D846B
:101500007E848F8498881BC01D861E861F86188A3D
:101510002E2F332727FD3095309521953F4F8D8114
:101520009E81AF81B88504C0B695A795979587959C
:101530002A95D2F789879A87AB87BC87DCCF222D83
:10154000332D442D552D662D772D882D992DE2E1D3
:1015500060965FC1A0E1B0E0EFEAFAE03EC1222E62
:10156000332E442E552E662E772E882E992E00234C
:1015700009F466C088E0FE01319611928A95E9F778
:1015800029833A834B835C836D837E838F82988724
:10159000E0E2E01B1E16CCF529813A814B815C818B
:1015A000602F772767FD7095DA01C901062E04C008
:1015B000880F991FAA1FBB1F0A94D2F789879A87A1
:1015C000AB87BC8704C05695479537952795EA9514
:1015D000D2F78D819E81AF81B88504C0880F991F95
:1015E000AA1FBB1F6A95D2F7282B392B4A2B5B2BDE
:1015F0002D873E874F87588B29843A844B845C849F
:101600006D847E848F8498881BC019861A861B86F9
:101610001C862E2F332727FD3095309521953F4F7F
:1016200089819A81AB81BC8104C0880F991FAA1F50
:10163000BB1F2A95D2F78D879E87AF87B88BDCCFEB
:10164000222D332D442D552D662D772D882D992D46
:10165000E2E16096DEC0A0E0B0E0E0E3FBE0C5C000
:10166000EC01E880F9800A811B81C801B7012DE1F6
:1016700033EF41E050E074D027EA31E440E050E03D
:101680003CD05B016C01C801B7012DE133EF41E0B3
:1016900050E066D0CA01B90124E13BE040E050E0EF
:1016A0002CD0A61AB70AC80AD90A1A141B041C049B
:1016B0001D0444F08FEF9FEFAFEFBFE7A80EB91EF8
:1016C000CA1EDB1EA882B982CA82DB82C5019F774F
:1016D000EAE0CDB7DEB7A5C0BEDF089587E091E0B0
:1016E000BADF0895AA27BB278093070190930801CA
:1016F000A0930901B0930A010895629FD001739FDE
:10170000F001829FE00DF11D649FE00DF11D929F9D
:10171000F00D839FF00D749FF00D659FF00D9927DC
:10172000729FB00DE11DF91F639FB00DE11DF91F00
:10173000BD01CF0111240895AA1BBB1B51E107C0B5
:10174000AA1FBB1FA617B70710F0A61BB70B881F51
:10175000991F5A95A9F780959095BC01CD010895E0
:10176000A1E21A2EAA1BBB1BFD010DC0AA1FBB1FA5
:10177000EE1FFF1FA217B307E407F50720F0A21B17
:10178000B30BE40BF50B661F771F881F991F1A9484
:1017900069F760957095809590959B01AC01BD01AE
:1017A000CF01089597FB092E05260ED057FD04D0D2
:1017B000D7DF0AD0001C38F450954095309521951C
:1017C0003F4F4F4F5F4F0895F6F790958095709576
:1017D00061957F4F8F4F9F4F08952F923F924F9269
:1017E0005F926F927F928F929F92AF92BF92CF92B1
:1017F000DF92EF92FF920F931F93CF93DF93CDB7BA
:10180000DEB7CA1BDB0B0FB6F894DEBF0FBECDBF31
:1018100009942A88398848885F846E847D848C8402
:101820009B84AA84B984C884DF80EE80FD800C810B
:101830001B81AA81B981CE0FD11D0FB6F894DEBFEE
:101840000FBECDBFED010895EE0FFF1F0590F4917F
:04185000E02D0994EA
:1018540054696D653A20003A0020446174653A2069
:10186400002E0075000300000003000100030002C5
:10187400000300030003000400030005008F00FFC1
:10188400FFFFFFFFFFFFFFFFFFFFFFFFFFFFFFFF64
:10189400FF020003000400FFFFFFFFAD000400008F
:1018A400000400010004000200040003000400041A
:1018B4000004000500040006000400070002000004
:1018C4000002000100020002000200030002000402
:1018D4000002000500FFFFFFFF160013001000FFC9
:1018E400FFFFFF180015001200FFFFFFFF17001491
:0C18F4000011000D0007000100000000C2
:00000001FF
